S01F0000525A4E324C5F52534B5F4F70454E65725F73696E676C652E73726563D5
S31560000000000000000000000000000000000000008A
S31560000010000000004C00006000600000002010003E
S3156000002000000000000000003F0000000000070024
S31560000030000000000000000000000000000000005A
S315600000400000000006000000A8E000000000A0E339
S315600000507F100FE3FA1240E3010090E2010050E1E5
S31560000060FCFFFF1A83070BE3000040E3300F81EECD
S31560000070111F91EE801581E3111F81EE38009FE517
S31560000080100F0CEE101F1FEE021081E3011081E3CA
S315600000904FF07FF5101F0FEE6FF07FF500000FE158
S315600000A01F00C0E3130080E300F36EE10C109FE5D0
S315600000B001F32EE16E0060E11EFF2FE100000000FB
S315600000C07C20100000BE704748009FE548109FE501
S315600000D048209FE548309FE548C09FE548E09FE59A
S315600000E0110002F100D0A0E1120002F101D0A0E1FE
S315600000F0170002F102D0A0E11B0002F103D0A0E1DB
S315600001001F0002F10CD0A0E1130002F10ED0A0E1B5
S31560000110060000EA1EFF2FE120491000204510006E
S3156000012020511000204D1000203D1000204110008D
S3156000013000502DE9020000FA090000FB350000FAC4
S315600001400180BDE811EE500F50F4700001EE500FC3
S31560000150BFF36F8FF8EE100A50F08040E8EE100A99
S31560000160BFF36F8F70471BEE100F50F00300BFF3A5
S315600001704F8F0BEE100FBFF36F8F704710B511EEF8
S31560000180100FBFF34F8F01EE100FBFF36F8F0F4845
S315600001900F490AEE120F0AEE321FBFF34F8F00248B
S315600001A009E00C4850F8341010EBC4004268200097
S315600001B000F012F8641C182CF3D300F087FE00F0F0
S315600001C079FE00F05FFE00F069FE10BDFFBB88445B
S315600001D00004080C0030100006EE320FBFF34F8F9C
S315600001E006EE131FBFF34F8F06EE332FBFF34F8F0D
S315600001F07047F82004EE160F01200CEEFC0F1CEE83
S315600002009C0F50F001000CEE9C0FBFF36F8F704790
S31560000210DFF800F0230F011080B5002000F0A2FE89
S3156000022000F080FA012000F09DFE00F0E4F800F096
S31560000230EBF800F035FAFFF7A1FF00F04CF900F09B
S315600002402AF900F029FA022000F08CFE00F010F87E
S3156000025000F0BEF8FFF7CDFF00F09AFB00F06EF9F4
S31560000260FFF7D6FF01BD0000DFF800F03BBA0210D1
S3156000027010B5032000F0C1FB0020A0E0BD49BE4AD6
S315600002800300DBB252F833300400E4B224010B51B0
S315600002900300DBB212EBC30252680300DBB21B0140
S315600002A0C9184A60B549B64A0300DBB252F8333022
S315600002B00400E4B224010B510300DBB212EBC3026B
S315600002C052680300DBB21B01C9184A60AD49AE4AE9
S315600002D00300DBB252F833300400E4B224010B5160
S315600002E00300DBB212EBC30252680300DBB21B01F0
S315600002F0C9184A60A549A64A0300DBB252F83330F2
S315600003000400E4B224010B510300DBB212EBC3021A
S3156000031052680300DBB21B01C9184A609D499E4AB8
S315600003200300DBB252F833300400E4B224010B510F
S315600003300300DBB212EBC30252680300DBB21B019F
S31560000340C9184A609549964A0300DBB252F83330C1
S315600003500400E4B224010B510300DBB212EBC302CA
S3156000036052680300DBB21B01C9184A608D498E4A88
S315600003700300DBB252F833300400E4B224010B51BF
S315600003800300DBB212EBC30252680300DBB21B014F
S31560000390C9184A608549864A0300DBB252F8333091
S315600003A00400E4B224010B510300DBB212EBC3027A
S315600003B052680300DBB21B01C9184A60401C010089
S315600003C0C9B20829FFF65AAF032000F0E5FA10BD5E
S315600003D0784801684908490001607749774A1160A1
S315600003E00021774A11600021764A1160016851F058
S315600003F001010160704780B573487449744A754B52
S31560000400D21A00F00BF801BD80B573487349744A7F
S31560000410891A00F023F801BD0000000030B4002AFC
S3156000042019D01400A408002304E005680D60001DBF
S31560000430091D5B1CA342F8D312F00302002A08D000
S31560000440002304E004780C70401C491C5B1C93423A
S31560000450F8D3BFF34F8F30BC7047000030B4002430
S315600004600025002915D00B009B08002202E00460DD
S31560000470001D521C9A42FAD311F00301002906D0DE
S31560000480002202E00570401C521C8A42FAD3BFF378
S315600004904F8F30BC704780B552485349534A891ACA
S315600004A0FFF7DCFF52485349534A891AFFF7D6FFD4
S315600004B052485349534A891AFFF7D0FF5248534965
S315600004C0534A891AFFF7CAFF52485349534A891A51
S315600004D0FFF7C4FF01BD80B551485249524A534B9C
S315600004E0D21AFFF79BFF52485249534A534BD21ACE
S315600004F0FFF794FF52485349534A544BD21AFFF7B9
S315600005008DFF53485349544A544BD21AFFF786FF1E
S3156000051053485449544A554BD21AFFF77FFF544803
S315600005205449554A554BD21AFFF778FF54485549F6
S31560000530554A564BD21AFFF771FF01BD80B50120AF
S3156000054000F05BFA002014EE160F002104EE161F71
S315600005504F490A6832F020020A6009684D490A78F4
S315600005600A780A780A78097804EE160F012000F0F6
S3156000057013FA01BD001128815C1003100012288156
S315600005809C10031000132881DC10031000142881CE
S315600005901C110310001528815C11031000172881B7
S315600005A09C110310001C2881DC110310001D28819A
S315600005B01C120310000006C040787D01200006C0B2
S315600005C0080006C00C0006C0001000600030100075
S315600005D0C830100000301000C83010001939100003
S315600005E0C8301000481E031048750B10481E0310D3
S315600005F000801330008013300080133000C0133049
S3156000060000C0133000C013300000143000001430F6
S3156000061000001430000016300061163000001630FD
S3156000062000110060000000004400000000000000AF
S31560000630481100600001001030D302100001001064
S31560000640B0E3026030D30210341E031030D30210C0
S31560000650E02E0360000014300000143000001430F7
S31560000660C82E036000801330008013300080133082
S31560000670C82E036000C0133000C0133000C01330B2
S31560000680E02E0360000016300000163000001630C1
S31560000690080328800830009080B5FFF7E5FD01BDAE
S315600006A06D490868C0F34010096811F0010100281F
S315600006B005D16A4810FA01F16948016004E06948A9
S315600006C010FA01F166480160704780B56748684A6C
S315600006D061490A600A6800920A6800920A68009294
S315600006E00A6800920A6800920A6800920A68009294
S315600006F0096800915C490860086800900868009085
S315600007000868009008680090086800900868009083
S3156000071008680090086800900098FFF7C1FF01BD67
S315600007200000000038B500200090524C4AF2035099
S315600007302060514D2860FFF7B3FFFFF7C6FF012029
S315600007404E490860002001E000BF401C010089B2EC
S3156000075049F640429142F7DB03204949086001208F
S315600007604849088040F2FF3047490880A52047493C
S315600007700870474801210170FE2101700121017056
S315600007800078012803D043480078C0B20090414801
S31560000790007810F001000028E8D101203E49088069
S315600007A040F2FF303D490880A5203D4908703D482C
S315600007B001210170FE21017001210170007801287C
S315600007C003D039480078C0B200903748007810F0FE
S315600007D001000028E8D101203449088040F2FF3149
S315600007E033480180A520334A1070334801220270D5
S315600007F0FE220270012202700078012803D02F4881
S315600008000078C0B200902D48007810F001000028F2
S31560000810E8D101202A4A10802A480180A5202A4969
S3156000082008702A4801210170FE21017001210170C2
S315600008300078012803D026480078C0B2009024488A
S31560000840007810F001000028E8D14FF425402060C0
S315600008502860009831BD00000400288100C2EB0BBF
S315600008609438100080D1F00800002880030632FF1B
S3156000087011000003101A2880001A28817000288150
S3156000088080002881080828810C08288110082881A2
S315600008900008288114082881280828812C082881C6
S315600008A03008288120082881340828814808288152
S315600008B04C082881500828814008288154082881DE
S315600008C0680828816C08288170082881600828815A
S315600008D0740828815FF0144127480A6852F00202C2
S315600008E00A6000224261002007E0244A52F8202074
S315600008F011EB8003C3F8082C401C1C28F5D300209C
S315600009000AE05FF0FF3211EB8003C3F8842211EB3B
S315600009108003C3F88423401C0D28F2D362B661B607
S3156000092064B6BFF36F8F704710B58005800DB0F168
S315600009302001134C134A237822F813102278521C94
S315600009402270BFF35F8F62B6BFF36F8F020092B201
S31560000950202A05DB0C4809B250F82100804704E0E4
S315600009600A4980B251F8200080472078401E2070E6
S3156000097072B6BFF36F8F10BD00001094D8DB021003
S31560000980183910004C3810004815031098381000BC
S3156000099080B5FFF79FFF01BD10B42B4A0100C9B2B5
S315600009A032F81110002908D00100C9B232F81110CE
S315600009B0491E0300DBB222F813100100C9B232F8F7
S315600009C01110002917D12149214A136853F4254390
S315600009D00400E4B231F81440E443A4B22340136047
S315600009E01C4A136853F42543C0B231F81000C04363
S315600009F080B20340136010BC704730B4124A0100E5
S31560000A00C9B232F81110002914D1104B104C256868
S31560000A100100C9B233F811100D4355F42545256020
S31560000A200C4C25680100C9B233F811100D4355F41A
S31560000A30254525600100C9B232F81110491CC0B2C3
S31560000A4022F8101030BC70478C381000C03010008F
S31560000A50101A2880001A288110B4002014EE161F80
S31560000A60002004EE160FDFF80424106800280BD16E
S31560000A704AF20450DFF8F8331C6804431C60DFF860
S31560000A80F4331C68204318601068401C106004EE44
S31560000A90161F10BC7047002014EE161F002004EECF
S31560000AA0160FDFF8C8231068002802D01068401EB1
S31560000AB01060106800280FD14FF6FB70DFF8B02386
S31560000AC01368034053F425431360DFF8A8231368C3
S31560000AD0184050F42540106004EE161F704710B59C
S31560000AE00C00DFF8981301608460200000F005F8C0
S31560000AF0A06800F0FAF8002010BD38B50400FFF7D2
S31560000B00ABFF00250EE06068290089B210EBC101D9
S31560000B1060682A0092B210EBC200B0F9040000F0DF
S31560000B2009F86D1C2800218880B28842EBD3FFF754
S31560000B30B2FF31BD70B50A0003009BB21B0A040008
S31560000B4024B204F0FF041168C1F3803100290DD08E
S31560000B50C949CD5C012616FA04F42C43CC54C24B29
S31560000B60010009B2180000F010F80DE0C249CD5C32
S31560000B70012616FA04F435EA0404CC54C04B01008D
S31560000B8009B2180000F001F870BD70B40C00A4B290
S31560000B90240A09B201F0FF01042916D210EBC4033E
S31560000BA0D3F8005AFF260B00DBB2DB009E40B5434C
S31560000BB01368C3F305260B00DBB2DB009E403543AA
S31560000BC010EBC403C3F8005A19E0042917D310EBDD
S31560000BD0C403D3F8045AFF2611F1FC03DBB2DB0031
S31560000BE09E40B5431368C3F3052611F1FC03DBB2DF
S31560000BF0DB009E40354310EBC403C3F8045A136808
S31560000C00C3F3C003002B22D010EB8403D3F8005645
S31560000C100F260B00DBB29B009E40B5431368C3F3FF
S31560000C2003160B00DBB29B009E40354310EB84033A
S31560000C30C3F80056031993F800341268C2F3C00271
S31560000C4012FA01F11943001980F800144BE00125EE
S31560000C50031993F8006415FA01F39E43031983F8A8
S31560000C6000641368C3F34103012B12D110EB4402F5
S31560000C70B2F8003203260A00D2B252009640B3435D
S31560000C80C9B249008D402B4310EB4400A0F80032F6
S31560000C9029E01368C3F34103022B24D31378DB07DF
S31560000CA005D4035D8D4033EA0505055506E01378E6
S31560000CB0DB0703D5035D8D401D43055510EB4403EB
S31560000CC0B3F8005203260B00DBB25B009E40B543CF
S31560000CD01268C2F34102C9B249008A40154310EB5B
S31560000CE04400A0F8005270BC7047F8B504000025B7
S31560000CF000260027FFF7B0FE5B4A002038E00100BF
S31560000D00C9B259436118897C55EA41151FE05FFAFB
S31560000D108CFCBCF1120F01D151F010010D430100A2
S31560000D20C9B259436118C97B0129E8D10100C9B22A
S31560000D3059436118C97C55EA411592F8101E5FF057
S31560000D40010C1CFA00FC5CEA010182F8101E01002D
S31560000D50C9B2511881F80C5E0100C9B203FB01F3F8
S31560000D60E118897B012902D1012181400E43401C93
S31560000D700100C9B204291DDA06230100C9B259432C
S31560000D806118B1F810C05FEA1C2C0100C9B2594362
S31560000D9061180D8A0100C9B2511891F80C1E11F044
S31560000DA08001E6465FFA8EFEBEF1100FAFD151F0BC
S31560000DB00801B3E7002149E00B00DBB2052043439D
S31560000DC0E018C3790800C0B214F8100018430B008D
S31560000DD0DBB2D31883F8000E0B00DBB20520434369
S31560000DE0E0180079012824D10800C0B2101890F8E4
S31560000DF0025E15F088050B00DBB205204343E01860
S31560000E00407905430B00DBB205204343E018807947
S31560000E1055EA80050B00DBB205204343E018007AF3
S31560000E200B00DBB212EB830383F8040E01208840CB
S31560000E3007430800C0B214EB4000407855EA00153D
S31560000E400800C0B2101880F8025E491C0800C0B2E3
S31560000E500228B1DBBF0057EA061782F8117EFFF75A
S31560000E601AFEF1BD0000000000000A80C8301000C4
S31560000E70101A2880001A2881000C038154524F50A2
S31560000E800000038111EE100F50F48050BFF34F8FB6
S31560000E9001EE100FBFF36F8F7047000011EE100F59
S31560000EA050F00400BFF34F8F01EE100FBFF36F8F4A
S31560000EB07047000011EE100F50F00100BFF34F8F26
S31560000EC001EE100FBFF36F8F704700002DE9F04100
S31560000ED0BFF34F8F002007EE150FBFF35F8F30EE25
S31560000EE0303FC3F30262002A3AD000240FE0401E6E
S31560000EF010FA0CFE55EA0E0E11FA06F858EA0E0EB6
S31560000F0007EE56EF0028F2D1002922D1641C9442E4
S31560000F1022D2032101FB04F11800C84010F007003B
S31560000F200228F3D36500280040EE100FBFF34F8F01
S31560000F3030EE100F10F00706361DC0F3C907C0F378
S31560000F404E31B7FA87FCBCF1200F03D1BCF1010C1E
S31560000F5000E0491E3800CBE7BFF34F8FBFF36F8FBA
S31560000F60BDE8F08180B5C0B2022806D10349886821
S31560000F70002802D00248FFF7B2FD01BDB0FE0210A4
S31560000F80EC65031000000000000000000000000097
S31560000F9000000000000000000000000000000000EB
S31560000FA000000000000000000000000000000000DB
S31560000FB000000000000000000000000000000000CB
S31560000FC000000000000000000000000000000000BB
S31560000FD000000000000000000000000000000000AB
S31560000FE0000000000000000000000000000000009B
S31560000FF0000000000000000000000000000000008B
S3156000100012000000C7FF010012001000C7FF1100A8
S3156000101002000010C3FF171012000030C7FF173020
S3156000102012000040C7FFFF5F02000060C3FFFF7F42
S3156000103013000080CBFFFF8013000081CBFFFF8190
S3156000104013000090CBFF1F9013000094C9FF1F94FC
S31560001050130000C0C9FFFFC00000000000000000D0
S31560001060000000000000000000000000000000001A
S31560001070000000000000000000000000000000000A
S3156000108000000000000000000000000000000000FA
S3156000109000000000000000000000000000000000EA
S315600010A000000000000000000000000000000000DA
S315600010B000000000000000000000000000000000CA
S315600010C001000200040008000000000000000000AB
S315600010D000000000000000000000000000000000AA
S315600010E0000000000000000000000000000000009A
S315600010F0000000000000000000000000000000008A
S315600011001CF09FE51CF09FE51CF09FE51CF09FE539
S315600011101CF09FE51CF09FE51CF09FE51CF09FE529
S315600011201EFF2FE100010010792010003C3A0110EB
S31560001130792010007920100079201000443B0110BE
S315600011407920100000000000310F19EEFC1F01E34A
S31560001150001040E3010000E0031000E3101040E3DC
S31560001160010080E14FF07FF5310F09EE6FF07FF5FA
S31560001170000000EA1EFF2FE104F01FE500201000CA
S3156000118070B504000D0016003000002804D1002060
S315600011902BF063FB2BF025FB2E61D4F88C0000E06E
S315600011A00068002803D0A842FAD1002005E0D4F8F0
S315600011B08C002860C4F88C50002070BD10B50024E7
S315600011C000234B724A6000220A7290F89520002A2A
S315600011D001D000F05DF8200040B210BD10B50400EB
S315600011E0C9B2002903D0022912D001D320E01FE042
S315600011F014F1A00314F19C0214F19801200011F07F
S315600012001EFC6268D4F890102000FFF7D7FF0FE04D
S315600012106068C4F89800A068C4F89C00E068C4F8E8
S31560001220A000B74B1A001900200011F008FCFFE778
S3156000123010BD38B50400002594F84100C00702D4FB
S315600012407FF00F0023E0D4F8900000280CD13C21F9
S31560001250012011F0F9F9C4F89000D4F89000002844
S3156000126002D15FF0FF3012E0D4F89000007A0028D7
S315600012700BD1A44AD4F890102000FFF781FF626872
S31560001280D4F890102000FFF799FF280040B232BDD5
S3156000129080B501220A7200224A7202224A8111F046
S315600012A08EFC01BD0921017200214172022141813A
S315600012B07047D0F88C0003E001E0072101720068F6
S315600012C000280BD0017A491E042904D9491FF4D09D
S315600012D0891E0129F0D800210172F0E7704738B500
S315600012E00500D5F88C400AE008E00020607528000B
S315600012F011F065FC01212800226990472468002CC2
S315600013001AD0207A0028032807D9001F01280CD993
S31560001310C01EEAD0801E08D0E6E76868002803D0C1
S3156000132021002800FFF7B4FFE8E76868002802D0CC
S315600013302000FFF7B7FFE1E731BD012180F8941087
S315600013407047002180F89410704780B590F895102A
S31560001350491C80F89510FFF7C2FF01BD80B590F873
S31560001360951000290AD090F89510491E80F89510BE
S3156000137090F89510002901D1FFF79BFF01BD7047DA
S3156000138038B56148056800E02D68002D00F0B6802C
S31560001390D5F88C4003E001E0022060812468002CCF
S315600013A0F2D06089002802D06089401E6081207A70
S315600013B001280CD002280AD0032821D004281FD087
S315600013C005284AD008285BD0092878D0E3E76089E9
S315600013D0002814D102202072211D28000AF0BBFBD0
S315600013E0607A401C6072607A042806DB03202072F3
S315600013F0002060720220608101E002206081CDE7FA
S315600014006089002828D1607A00280AD104202072D9
S31560001410002020730021280022699047280011F0DF
S31560001420CEFB211D28000AF0A7FB14206081607A9C
S31560001430401C6072607A02280EDB05202072002054
S3156000144060722BF027FA4FF41671B0FBF1F201FBD4
S31560001450120010F561706081A0E7608900280ED1E6
S31560001460211D28000AF077FB2BF014FA4FF4167151
S31560001470B0FBF1F201FB120010F5617060818DE73F
S31560001480608900281AD1211D28000AF075FB1420F6
S315600014906081607A401C6072607A02280EDB0520EB
S315600014A02072002060722BF0F5F94FF41671B0FBD4
S315600014B0F1F201FB120010F5617060816EE76089E0
S315600014C000287FF46BAF211D28000AF044FB607A88
S315600014D0401C6072607A0228FFF65EAF05202072BB
S315600014E0002060722BF0D6F94FF41671B0FBF1F262
S315600014F001FB120010F5617060814FE731BD00009D
S31560001500E0EA02109501001024610B10F8B584B072
S3156000151005000E00062215F13A0101AC200029F003
S3156000152062ED0027042216F10E016C46200029F0B8
S315600015305AED042216F1180103AC200029F052ED91
S31560001540D5F88C403CE00098616888420DD106224F
S3156000155016F1080101A829F090ED002805D03200A7
S315600015602100280000F03DF8070028E00098616837
S31560001570884207D1062216F1080101A829F07CED00
S31560001580002816D10098002819D10398616888420E
S3156000159015D1062216F1080101A829F06EED002882
S315600015A00DD0062216F1120101A829F066ED002879
S315600015B005D032002100280000F013F807002468E7
S315600015C0002C0AD0207A401E0228CFD9C01E0128DE
S315600015D0B9D9001F0128B6D9F1E73800C0B205B005
S315600015E0F0BD2DE9F04104000D0016000027287AB1
S315600015F0401E022807D9C01E012813D9001F1BD020
S31560001600401E26D02FE094F89400012809D10120CD
S31560001610A8750620287201206875022120002A69B3
S31560001620904720E00220A875082028720020687282
S3156000163001206881012716E094F89400012807D1FB
S315600016400620287201206875022120002A699047C9
S3156000165009E00320A875082028720020687201201E
S3156000166068810127FFE794F89400012816D1287B4A
S31560001670401C2873062216F1080115F1170840462A
S3156000168029F0B0EC1C2215F11D083100404629F006
S31560001690AAEC01202875200011F091FA3800C0B23A
S315600016A0BDE8F081002907D00868002804D0002A28
S315600016B002D01068002800D1FFE7704738B50400F3
S315600016C00D001EF04DFA68626A6A2900200023F058
S315600016D011FD010049B2002902D195F9040000E02C
S315600016E040B232BD38B58AB00D001100C0B200F00C
S315600016F03FFF0400002C3ED08DF8085000946946E8
S31560001700DFF8B007FFF7DAFF40B2002833D0606831
S31560001710002804D000202BF0A0F82BF062F814F11A
S315600017200C00002802D0E068002801D1002000E00B
S315600017300120002804D100202BF08FF82BF051F8FF
S3156000174014F11400002802D06069002801D100203D
S3156000175000E00120002804D000202BF07EF82BF05A
S3156000176040F814F10C001EF07BF82100072011F000
S3156000177000F8002000E020000BB030BD80B58AB0D4
S31560001780002801D100200FE000901EF0D0F90390F0
S315600017906946DFF82407FFF791FF010049B2002987
S315600017A001D040B200E000200BB000BD38B50400A7
S315600017B0002C01D1002012E094F82C00000701D51E
S315600017C0002503E02000FFF7D9FF0500280040B29E
S315600017D0002802D1200000F014FF280040B232BD7C
S315600017E080B58AB0002802D17FF00F0014E000298E
S315600017F002D17FF00F000FE0002A02D17FF00F00C8
S315600018000AE000908DF81030029103926946DFF885
S31560001810AC06FFF753FF40B20BB000BD80B58AB08F
S31560001820002802D17FF00F000DE0002901D1DFF81A
S31560001830901600900291ADF80C206946DFF8840698
S31560001840FFF73CFF40B20BB000BD80B58AB0002800
S3156000185002D17FF00F0006E000906946DFF8680667
S31560001860FFF72CFF40B20BB000BD3EB504000D0083
S31560001870002D02D17FF00F0083E000202860002C4D
S3156000188002D17FF00F007CE0200000F0E9FA8DF8CD
S3156000189000009DF90000002802D09DF9000070E06C
S315600018A014F11400002802D06069002801D10020DC
S315600018B000E00120002804D094F82C0010F0090FF5
S315600018C002D07FF00E005CE01EF072F9E169491CFF
S315600018D0E1611EF076F994F82C00800711D501A914
S315600018E014F114001EF059F810F1010F1CD11EF00E
S315600018F05FF9E169491EE1611EF063F97FF0060058
S315600019003FE0A26A01A914F114001DF0FBFF10F17B
S31560001910010F09D11EF04CF9E169491EE1611EF023
S3156000192050F97FF002002CE01EF042F9E169491E91
S31560001930E1611EF046F994F82C00000707D501987E
S3156000194000F0CEFA002802D07FF00A0019E0606B42
S31560001950002804D0002201212000636B9847694665
S31560001960019800F0E3FA002802D09DF9000008E033
S315600019700198002802D17FF00E0002E001982860ED
S3156000198000203EBD7CB504000D00160000200190CD
S31560001990002D02D17FF00F00ADE000202860002C02
S315600019A002D17FF00F00A6E014F10C00002802D0EF
S315600019B0E068002801D1002000E00120002803D063
S315600019C094F82C0000070BD5200000F049FA0100BE
S315600019D049B2002901D040B28DE07FF00A008AE06A
S315600019E01EF0E6F8E169491CE1611EF0EAF894F838
S315600019F02C00800709D4700707D494F82C00C00720
S31560001A0003D494F90800002821D001A914F10C0030
S31560001A101DF0C3FF10F1010F2CD11EF0C9F8E1696A
S31560001A20491EE1611EF0CDF8200000F019FA0100B0
S31560001A3049B2002901D040B25DE094F82C00C0079D
S31560001A4002D57FF00A0056E07FF0060053E0A26AF6
S31560001A5001A914F10C001DF055FF10F1010F09D119
S31560001A601EF0A6F8E169491EE1611EF0AAF87FF052
S31560001A70020040E01EF09CF8E169491EE1611EF03B
S31560001A80A0F894F82C00000707D5019800F028FA12
S31560001A90002802D07FF00A002DE0207810F0F000D8
S31560001AA0102812D16946019800F040FA002809D042
S31560001AB09DF9000010F10F0F01D100201BE09DF988
S31560001AC0000018E0019802890AE00198002804D114
S31560001AD000202AF0C2FE2AF084FE0198006802897E
S31560001AE0606B002804D092B201212000636B984796
S31560001AF001982860002076BD80B5002804D0037860
S31560001B0013F0F003102B02D07FF00F0006E0106098
S31560001B1091601100DFF8B403FFF7D0FD02BD80B518
S31560001B208AB0002804D0027812F0F002102A02D09F
S31560001B307FF00F0003E06A46FFF7DEFF40B20BB0AE
S31560001B4000BDF8B58AB005000C00160015F10C0052
S31560001B50002802D0E868002801D1002000E00120BA
S31560001B60002803D095F82C00000702D57FF00A0004
S31560001B7051E095F82C00000619D595F82C0010F068
S31560001B807F0085F82C00686B002804D000220121B4
S31560001B9028006B6B98476868002833D1280000F0EE
S31560001BA05FF9010049B2002929D040B233E0320022
S31560001BB0D2B221002800FFF7E5FE0700380040B2E8
S31560001BC0002802D0380040B225E02468300709D4E6
S31560001BD0002C01D0218900E001216A4689B22800E3
S31560001BE0FFF78AFF002C14D1F006CCD595F82C00AF
S31560001BF050F0800085F82C007FF006000BE07FF047
S31560001C000D0008E00121280000F016F97FF00E00B3
S31560001C1001E0380040B20BB0F0BD80B5002804D0BA
S31560001C20037813F0F003102B02D07FF00F0002E070
S31560001C30D2B2FFF786FF02BD80B5002804D00378D4
S31560001C4013F0F003102B02D17FF00F0002E0D2B246
S31560001C50FFF798FE02BD7CB504000D000020002D44
S31560001C6002D17FF00F003FE000202860002C02D1F7
S31560001C707FF00F0038E0207810F0F00010282ED1A9
S31560001C8000200090062010F054FD0600002E02D1C0
S31560001C905FF0FF3028E0002269462000FFF751FF21
S31560001CA00400200040B2002806D03100062010F063
S31560001CB060FD200040B217E00098002804D10020A3
S31560001CC02AF0CBFD2AF08DFD009830600098706098
S31560001CD00020B0810020B0602E60002004E0002269
S31560001CE029002000FFF74EFE76BD80B5002909D099
S31560001CF0002A01D1002200E012688A608B8100F020
S31560001D0004F801E07FF0050002BD80B58AB00028C6
S31560001D1002D17FF00F0006E00090029169466C48A0
S31560001D20FFF7CCFC40B20BB000BDE0B5019102926A
S31560001D3004990091DBB2012201A900F001F80EBD01
S31560001D40F8B58AB0002802D17FF00F0072E00478FF
S31560001D5014F0F004102C02D07FF005006AE090F8D1
S31560001D602C40C4F3400414F00104C3F3800515F05D
S31560001D7001052543446A002C00D00125109C2E00E5
S31560001D80F6B2002E04D0002C02D17FF0050051E09F
S31560001D9000265FF0000C01E01CF1010C1700BFB2D9
S31560001DA0BC450BDA11EBCC077F68BE1911EBCC078B
S31560001DB07F68BE42F0D27FF005003BE0002E01D185
S31560001DC0002037E0B6F1004F06D3002C02D17FF039
S31560001DD005002FE07FF0004600900291ADF80C20E0
S31560001DE0002104918DF81C30059600210691406A09
S31560001DF0002803D01DF09BFE089001E000200890AB
S31560001E0069463448FFF75AFC0700380040B200289C
S31560001E100ED1002C01D006982060EDB2002D07D1BE
S31560001E200698B04204D000202AF017FD2AF0D9FCAB
S31560001E30380040B20BB0F0BD80B58AB0002802D140
S31560001E407FF00F000AE000908DF808101DF06FFE1D
S31560001E50039069462048FFF731FC40B20BB000BDE5
S31560001E6038B50400002C01D1002009E01DF0A0FE69
S31560001E7094F90850002121721DF0A3FE280040B29B
S31560001E8032BD80B58AB0002802D17FF00F000FE026
S31560001E90002900D10A49002A00D1094A009002911E
S31560001EA003928DF8113069460C48FFF707FC40B283
S31560001EB00BB000BD15150010F91900104721001070
S31560001EC0E0EA0210611B0010A91B0010371D00100C
S31560001ED0D51C001091200010032200101F23001053
S31560001EE0DFF84C1B884201D1012000E000207047DA
S31560001EF080B5010049B27FF00E02891A09D0491EE9
S31560001F0004D0491E08D1DFF82C0B0EE0DFF8280B51
S31560001F100BE0DFF8280B08E040B2002804D0002070
S31560001F202AF09BFC2AF05DFC002002BD38B5050056
S31560001F300C00002C04D100202AF08FFC2AF051FC02
S31560001F40DFF8F00A854204D17FF00C002070012092
S31560001F5012E0DFF8E40A854204D17FF00D002070BC
S31560001F60012009E0DFF8D40A854204D17FF00E0033
S31560001F702070012000E0002032BDF8B504000D009D
S31560001F8017001E00002D04D100202AF066FC2AF0FE
S31560001F9028FC002C04D100202AF05FFC2AF021FCEA
S31560001FA0002C03D1380012F082F853E06068A84232
S31560001FB004D000202AF051FC2AF013FC14F10C0026
S31560001FC0002802D0E068002801D1002000E001204E
S31560001FD0002803D094F82C00000703D5380012F0CF
S31560001FE066F837E0062010F0A4FB0500002D03D14B
S31560001FF0380012F05CF82DE02F606F60002E01D182
S31560002000002100E031680698A960A88194F82C0048
S3156000201040060AD5DFF88C0B81688289891801220F
S31560002020AA7340696861488828823E89290014F14C
S315600020300C001DF040FC002803D0280029F0C4FDE8
S3156000204008E0606B002805D0320092B200212000C3
S31560002050636B9847F1BDF8B504000E0015001F00CC
S31560002060002E04D100202AF0F8FB2AF0BAFB002CDF
S3156000207004D100202AF0F1FB2AF0B3FB7FB2002FD7
S3156000208004D000202AF0E9FB2AF0ABFB002C02D139
S315600020907FF005003DE06068B04204D000202AF081
S315600020A0DCFB2AF09EFB14F10C00002802D0E068ED
S315600020B0002801D1002000E00120002803D094F818
S315600020C02C0000070AD5002D06D0298930001FF0A4
S315600020D015F8280011F0EBFF00201AE0002D02D061
S315600020E029002D8902E0DFF85419002514F10C004F
S315600020F01DF0E1FB002802D05FF0FF3009E0606B65
S31560002100002805D02A0092B200212000636B984710
S315600021100020F2BD10B50400002C04D100202AF086
S315600021209CFB2AF05EFB6078012804D10121200027
S3156000213000F046FE06E06078042803D10121200005
S3156000214000F03EFB94F82C00C00623D5606800289A
S3156000215020D04FF6FF706168096F814202D26068D5
S31560002160006FFFE780B243F20101884212DB6068CC
S31560002170B0F8740021280DDA94F82C0010F0EF0006
S3156000218084F82C00606B002804D000220221200015
S31560002190636B9847002010BD38B504001500002C0D
S315600021A004D100202AF059FB2AF01BFB002C33D007
S315600021B06078012804D10121200000F001FE06E0CC
S315600021C06078042803D10121200000F0F9FA6068E4
S315600021D0002821D04FF6FF706168096F814202D2F4
S315600021E06068006FFFE780B243F20101884213DB4B
S315600021F06068B0F8740021280EDA94F82C0010F0AC
S31560002200EF0084F82C00606B002805D02A0092B29B
S3156000221002212000636B9847002032BDF8B50400A8
S315600022200D00002C04D100202AF017FB2AF0D9FA01
S315600022301DF0BEFC00216160257294F82C1051F0EF
S31560002240010184F82C106678002161701DF0B9FCDC
S31560002250606B002804D0002204212000636B98473D
S31560002260606B002804D0002200212000636B984731
S31560002270606B002804D0002202212000636B98471F
S31560002280280040B2FFF734FE070014F10C00002866
S3156000229002D0E068002801D1002000E0012000287B
S315600022A008D094F82C00000704D4390014F10C000F
S315600022B01DF001FB14F11400002802D060690028AB
S315600022C001D1002000E00120002808D094F82C00FD
S315600022D0000704D4390014F114001DF0ECFA300044
S315600022E0C0B2012807D03000C0B2042803D0300045
S315600022F0C0B203282ED194F82C00C0F3800010F0F1
S31560002300010094F82C1011F0FB0184F82C100028C1
S3156000231028D1206B002804D100202AF09EFA2AF0EA
S3156000232060FAF6B2042E03D10020216B087101E039
S31560002330206B0571206B456A2868002804D100204F
S315600023402AF08BFA2AF04DFA0020206328001DF04F
S31560002350D5FB07E0206B002804D000202AF07DFA28
S315600023602AF03FFAF1BD10B501004C6820001FF05D
S3156000237070FBDFF8941920001FF06FFBDFF88C19F3
S3156000238020001FF07AFB0222DFF8841920001FF07C
S315600023909BFBDFF8801920001FF07FFB10BD70B536
S315600023A004000D00002C02D17FF005008DE014F1D1
S315600023B01400002802D06069002801D1002000E0E6
S315600023C00120002803D094F82C00000702D57FF086
S315600023D005007AE0002D15D17FF00C00FFF788FD2F
S315600023E0010014F114001DF066FA002807D1606B35
S315600023F0002804D0002200212000636B98477FF0FC
S31560002400050062E052B2002A04D000202AF025FAC4
S315600024102AF0E7F9616B207800F0AAF80600002E32
S3156000242015D17FF00C00FFF763FD010014F1140075
S315600024301DF041FA002807D1606B002804D0002205
S3156000244000212000636B98475FF0FF303DE07560C8
S315600024503000FFF788FF310014F114001DF02BFAED
S31560002460002829D07468002120001FF0F2FA0021AC
S3156000247020001FF0F2FA002120001FF0FEFA002271
S31560002480002120001FF020FB002120001FF005FB2B
S315600024900020706016F10C001DF0E2F916F10C00D8
S315600024A0002803D00020F06000203061300000F08A
S315600024B0A8F85FF0FF3008E0606B002804D00022C7
S315600024C000212000636B9847002070BD38B504007A
S315600024D0002520684068002804D000202AF0BDF955
S315600024E02AF07FF92068007810F0F000C0B210285A
S315600024F022D020282ED12800C0B223F059FD2168B1
S3156000250048602068406800280ED02068007822283D
S3156000251003D101202168496808742268DFF8F8173A
S315600025202068406823F00FFD20684068002802D1CB
S315600025305FF0FF30207131BD2800C0B21FF084FA11
S315600025402168486020684068002802D02068FFF74C
S315600025500AFFE9E77FF005002071ECE780B500210E
S31560002560017101684968002901D1FFF7AFFF01BD1C
S31560002570F8B507000D000026072010F0DAF8040011
S31560002580002C01D1002023E000202072277000205B
S3156000259060600020E06117F0F007FFB2102F0BD0EB
S315600025A0202F0BD1102156F0400614F10C001DF0BF
S315600025B031F900280DD006E01021F6E700202AF058
S315600025C04CF92AF00EF92100072010F0D2F800200D
S315600025D0F2BD14F11400002803D0002060610020D1
S315600025E0A061002060705FF0FF30206265630020AC
S315600025F02063002060620020A06284F82C602000C6
S31560002600E6E710B504006068002804D000202AF0D0
S3156000261024F92AF0E6F8200000F027F814F10C00FF
S31560002620002802D0E068002801D1002000E00120E7
S31560002630002804D000202AF010F92AF0D2F814F10C
S315600026401400002802D06069002801D1002000E053
S315600026500120002804D000202AF0FFF82AF0C1F8F3
S315600026602100072010F085F810BD3EB5040094F8EF
S315600026702C00000704D400202AF0EFF82AF0B1F805
S3156000268014F10C00002802D0E068002801D1002077
S3156000269000E00120002803D12BE0009829F094FA8D
S315600026A0694614F10C001DF078F910F1010F14D091
S315600026B00098FFF715FC0028F2D1207810F0F000A2
S315600026C01028EAD10DF105010098FFF72FFC0028CC
S315600026D0E6D1009811F0EBFCE2E714F10C001DF076
S315600026E0BFF814F10C00002803D00020E060002041
S315600026F0206114F11400002802D06069002801D11D
S31560002700002000E0012000281AD12DE00098FFF794
S31560002710E7FB002814D101A90098FFF707FC002801
S315600027200ED1009D2800FFF7A0FF6868002804D03E
S3156000273068681EF0C3FB002068602800FFF761FF31
S31560002740694614F114001DF028F910F1010FDDD16E
S3156000275014F114001DF084F814F11400002803D05D
S31560002760002060610020A06137BDF8B50400B04E5E
S3156000277094F82C0050F0080084F82C001DF018FA2C
S31560002780E5691DF01EFA00270EE0310014F1140011
S315600027901DF091F807E001200028F6D0310014F111
S315600027A00C001DF088F87F1CAF4208DA14F10C00AB
S315600027B0002802D0E0680028EDD10020ECE7F1BDEA
S315600027C02DE9F84F04000D000026002C04D10020EE
S315600027D02AF043F82AF005F8207810F0F000102867
S315600027E004D000202AF039F829F0FBFF607804282D
S315600027F004D000202AF031F829F0F3FF6068002841
S3156000280004D100202AF029F829F0EBFF206B00287C
S3156000281004D100202AF021F829F0E3FFD4F804B0AF
S31560002820206B007A10F0010810F00207C0B203288E
S3156000283002D15FF0010A1FE04046C0B200280ED008
S315600028409BF81400052807D09BF81400062803D0CF
S315600028509BF81400082802D15FF0010A0CE03800EA
S31560002860C0B2002806D09BF81A00C00602D55FF0F9
S31560002870010A01E05FF0000A5046C0B2002803D0AA
S31560002880002158461FF0E5F89BF81400012804D192
S31560002890002158461FF011F920E04046C0B20028DA
S315600028A007D0002158461FF0D8F8002158461FF07F
S315600028B004F93800C0B2002803D0002158461FF042
S315600028C0DCF85046C0B2002808D0002200215846E5
S315600028D01FF0FAF8002158461FF0DFF85046C0B2E4
S315600028E0002804D058461EF020FA814607E03A00D8
S315600028F0D2B24146C9B258461EF028FA81464846C9
S3156000290040B2002801D1012621E048465FF0FF3140
S3156000291040B288421AD144F620600090606A01286D
S3156000292001DB606A00901DF002F9216BC968401AEC
S31560002930009988420BDB01265046C0B2002806D0BB
S3156000294058461EF0BBFA5FF0000900E00126300031
S31560002950C0B200283CD0206B466A206B80F8049099
S3156000296000202063002060704FFA89F9B9F1000FEA
S3156000297026D15FFA8AFABAF1000F09D000206060AA
S31560002980606B002804D0002204212000636B984706
S315600029905FFA88F8B8F1000F07D0606B002804D0A2
S315600029A0002200212000636B9847FFB2002F07D0FA
S315600029B0606B002804D0002202212000636B9847D8
S315600029C0EDB2002D02D030001DF098F800202DE009
S315600029D0F6B2002E1FD19BF81400012804D1002006
S315600029E029F03BFF29F0FDFEFFB2002F04D0DFF88F
S315600029F01C1358461FF041F80122DFF8141358469D
S31560002A001FF062F8DFF80C1358461FF046F82100F5
S31560002A1058461FF01EF8484640B2002804D10020F0
S31560002A2029F01BFF29F0DDFE484640B2BDE8F28F73
S31560002A30D41D0310D51D0310D61D0310D71D03101A
S31560002A4038B50400206845782800C0B200280AD04E
S31560002A502068007810F0F000102804D0002029F0DB
S31560002A60FCFE29F0BEFE2800C0B2002825D0280052
S31560002A70C0B2012808D02800C0B203281DD1206842
S31560002A8090F82C00400718D42068006B002804D109
S31560002A90002029F0E2FE29F0A4FE2068006B406A5F
S31560002AA07FF00E012268126B11710021226811639A
S31560002AB00021226851701DF021F8EDB2032D09D175
S31560002AC0206890F82C00400704D4002029F0C5FE49
S31560002AD029F087FE002020712068FFF746FE2068F7
S31560002AE04068002849D02068007810F0F000C0B235
S31560002AF010280AD020283DD1002021684968486204
S31560002B002068406823F024FA34E02068006B0028CF
S31560002B1004D0002029F0A1FE29F063FE042021687C
S31560002B204870032020722068046300212068FFF744
S31560002B3047FE00281DD020684078042804D0002075
S31560002B4029F08BFE29F04DFEDFF8605828001CF056
S31560002B50CDFF0021606A1CF073FF28001CF0BCFFEB
S31560002B6020684078002804D0002029F076FE29F0FD
S31560002B7038FE16E00020216848602068406B002817
S31560002B8005D000220021206823685B6B9847206887
S31560002B90406B002805D000220221206823685B6B09
S31560002BA0984731BD8475091010B5040020684068E7
S31560002BB0002819D02068007810F0F000C0B2102804
S31560002BC008D020280DD1A289A1682068406823F02A
S31560002BD024F90BE0A289A168206840681EF073F9A9
S31560002BE004E07FF0050001E07FF00500207110BD74
S31560002BF038B505002868406800287DD028680078C8
S31560002C0010F0F000102872D128684078002861D151
S31560002C1028684068007D002804D07FF005008DF8A4
S31560002C2000006DE0FF216A46C9B2286840681EF060
S31560002C30C7F90400002C63D028680C30002803D044
S31560002C402868C068002801D1002000E00120002823
S31560002C500DD028680C301CF003FE28680C30002864
S31560002C6005D000202968C860002029680861002016
S31560002C708DF8000028681430002803D02868406961
S31560002C80002801D1002000E00120002806D1102193
S31560002C90286814301CF0BEFD8DF800009DF9000018
S31560002CA0002810D102202968487028684460296885
S31560002CB0286840681EF0CDFEDFF8F4162868406884
S31560002CC01EF0FBFE1CE020001EF02FF80020296895
S31560002CD0486015E028684078022803D100208DF806
S31560002CE000000DE07FF00A008DF8000008E07FF03C
S31560002CF00F008DF8000003E07FF00A008DF80000F9
S31560002D009DF80000287131BD0F10001051110010A0
S31560002D10CD100010D5110010330F001010B504004F
S31560002D202068FFF79DF8010049B2002925D1206887
S31560002D30406800281FD02068007810F0F000202836
S31560002D4016D1A0688068002806D1A068016820684E
S31560002D50406822F013FF0AE0A0688389A06810F13A
S31560002D600802A06801682068406822F017FF04E046
S31560002D707FF00A0001E07FF00A00207110BD70B597
S31560002D8005000020287128684068002817D0286848
S31560002D90007810F0F000102811D1AC68B4F5803FCF
S31560002DA002D34FF6FF7600E02600310089B228682C
S31560002DB040681EF0A3F9B6B2A41B002CEED170BD1C
S31560002DC02DE9F24F04000025002C04D1002029F0E3
S31560002DD044FD29F006FD6078012804D0002029F022
S31560002DE03CFD29F0FEFC206B002804D1002029F070
S31560002DF034FD29F0F6FC6068002804D1002029F033
S31560002E002CFD29F0EEFC206B8069216B49698842B4
S31560002E1004D3002029F021FD29F0E3FC206B808992
S31560002E20002804D1002029F018FD29F0DAFC206B77
S31560002E3090F81C8094F82C00C0F3400010F001005C
S31560002E40C8F3800616F001060643606A002800F0A3
S31560002E508D801CF06CFE216B096A401A616A88429B
S31560002E60C0F284800125206B8069002802D17FF042
S31560002E70060719E1002717E1D3464FF6FF79606828
S31560002E80006F484502D26068006F00E04846010066
S31560002E905A4689B292B2914209D283463000C0B294
S31560002EA0002800F08380584680B2002875D0206BD9
S31560002EB080684068216B096911FA8BF1884204D2F7
S31560002EC0002029F0CAFC29F08CFC5846494680B29D
S31560002ED0884202D1BAF5803F09D2584680B21FFABD
S31560002EE08AFA504565D1206B8089022861DB5FF0E4
S31560002EF0010A58F002084346DBB25A4692B23900DC
S31560002F00606820F0DDFD0700380040B2002824D15B
S31560002F10206B806910FA8BF0216B8861206B0069E9
S31560002F2010FA8BF0216B0861206B0069216B896850
S31560002F304968884211D1206B808919EB0000216BAA
S31560002F408881206B8089002807D0206B80680830D4
S31560002F50216B88600020216B08615FFA8AFABAF1FA
S31560002F60000F29D0380040B2002825D1206B806838
S31560002F700068216B09694718206B8068D0F804A047
S31560002F80206B0069BAEB000ABAF5803FFFF474AFB4
S31560002F904FF6FF7B58F002086FE7206B80690028C8
S31560002FA002D17FF0060700E000270FE058F0020824
S31560002FB07DE75FF0000A9EE7380040B2002805D042
S31560002FC038005FF0FF3140B2884233D13000C0B282
S31560002FD0002814D0206B8069216B496988420ED223
S31560002FE0606B002804D0002203212000636B9847A1
S31560002FF094F82C0050F0100084F82C001AE06068F9
S31560003000006F484503D26068D0F87090FFE71FFAFA
S3156000301089F943F20100814504DB6068B0F8740009
S31560003020212807DB606B002804D0002203212000E2
S31560003030636B9847380040B2002815D1206B8069D1
S31560003040216B4969884202D0F6B2002E00D0012574
S31560003050606821F0FBF901007FF0030249B29142FA
S3156000306022D1070001251FE038005FF0FF3140B232
S31560003070884218D1606821F0E9F901007FF0030207
S3156000308049B2914202D1070001250DE0F6B2002E49
S315600030900AD0206B8069002802D17FF0060700E025
S315600030A00027012500E00125EDB2002D10D09DF826
S315600030B00010206B406A226B177100222263002287
S315600030C06270C9B2002901D01CF018FD002001E031
S315600030D05FF0FF30BDE8F28F38B504002068FEF778
S315600030E0BFFE010049B200294FD12068007810F078
S315600030F0F000102847D120684078002802D07FF081
S31560003100040042E020684068002839D00120216828
S3156000311048702068006B002804D0002029F09DFBD1
S3156000312029F05FFB6069002804D1002029F095FB37
S3156000313029F057FB2068046300212068FFF740FEF2
S3156000314000281CD020684078012804D0002029F08F
S3156000315084FB29F046FB954D28001CF0C7FC002136
S31560003160606A1CF06DFC28001CF0B6FC2068407894
S31560003170012804D1002029F070FB29F032FB05E01C
S315600031807FF00A0001E07FF00500207131BD80B557
S3156000319001684968002954D0017C002905D001687E
S315600031A0496809688268116004E00168496849688D
S315600031B082681160002101710168097811F0F001DF
S315600031C0C9B2102919D0202935D1017C002905D032
S315600031D001684968498AC06801800DE001684968EC
S315600031E0097C490703D47FF00A01017104E0016894
S315600031F04968898AC068018026E0017C00290DD172
S3156000320001684968097D002904D001684968097D1B
S31560003210012903D17FF00A0101710BE0017C0029CD
S3156000322003D001684968C98A02E001684968098B68
S31560003230C068018008E0002029F00FFB29F0D1FA70
S3156000324002E07FF00A01017101BD38B50400206813
S31560003250457820684068002800F081802068007802
S3156000326010F0F00010287AD1207A032803D02800C5
S31560003270C0B2022873D02800C0B2032803D17FF001
S315600032800A00207130E02800C0B201282CD1207AD3
S3156000329080071AD52068006B002804D1002029F029
S315600032A0DCFA29F09EFA2068006B406A7FF00E0116
S315600032B02268126B11710021226811630021226855
S315600032C0517000251CF01AFC0EE0207A012804D00B
S315600032D0002029F0C2FA29F084FA00220121206830
S315600032E040681DF033FD2071EDB2002D3AD1207A91
S315600032F0C00702D52068FFF738FA2068006B0028FF
S3156000330004D0002029F0A9FA29F06BFA042021687C
S3156000331048702068046300212068FFF751FA00288E
S315600033201CD020684078042804D0002029F095FA43
S3156000333029F057FA1D4D28001CF0D8FB0021606A61
S315600033401CF07EFB28001CF0C7FB20684078002834
S3156000335004D0002029F081FA29F043FA02E07FF0D8
S315600033600A00207131BD10B504007FF00A0020719B
S3156000337020684068002817D02068007810F0F000B8
S3156000338020280ED1607C002805D1A168E06809F08C
S31560003390E0F9207108E0A168E06809F05AFA207146
S315600033A002E07FF00500207110BD0000E86E0B1092
S315600033B05713001070B400280DD14FF4A164DFF8E4
S315600033C0805504FB00F6A95104FB00F169184A60B8
S315600033D060432818836070BC704770B400280DD1B4
S315600033E040F6F864DFF85C5504FB00F6A95104FB6F
S315600033F000F169184A6060432818836070BC7047A2
S3156000340070B400280DD140F6F864DFF83C5504FB33
S3156000341000F6A95104FB00F169184A606043281858
S31560003420836070BC704770B505000E000020308068
S315600034303100280000F034F80400002C24D13088D4
S31560003440002825D13100280000F086F80400002C01
S3156000345015D1308800281BD13100280000F00CF906
S315600034600400002C06D13088002803D140F22F10CA
S3156000347030800DE00421280002F0EFFB08E0032114
S31560003480280002F0EAFB03E00221280002F0E5FBD7
S31560003490002C03D02900200002F07AFD200070BDC8
S315600034A02DE9F84306000F00002400E0641C002CA0
S315600034B028D14FF4A168DFF8889408FB04F059F826
S315600034C00000716B8842F1D108FB04F019EB000033
S315600034D04068316A8842E9D108FB04F019EB0000C4
S315600034E08068F16C8842E1D1306A01F0F5FE050032
S315600034F0002D2BD0280002F060FB032805D14FF485
S31560003500837038800020BDE8F283280002F055FB06
S31560003510042817D12900300002F08CFD002811D054
S3156000352008FB04F019EB0000103008FB04F119EBFE
S315600035300101D1F8E810884708FB04F419EB040090
S315600035401030E0E74FF483703880DBE708FB04F463
S3156000355019EB04001030D6E72DE9F0470600002489
S3156000356000E0641C002C40F0848040F6F867DFF8C9
S31560003570D48307FB04F058F80000726B9042F0D1D8
S315600035800D0007FB04F018EB00004068316A8842C2
S3156000359003D040F22B1028806BE007FB04F018EB99
S315600035A000008068F16C884203D040F22F102880BA
S315600035B05FE05FF0000901E019F10109B9F1030F5D
S315600035C036D24FF49F6A07FB04F018EB00000AFB43
S315600035D009F14018103002F0F0FA0428ECD107FB2C
S315600035E004F018EB00000AFB09F1401810F1100115
S315600035F0300002F01FFD0028DED007FB04F018EB58
S3156000360000000AFB09F14018103007FB04F118EBC3
S3156000361001010AFB09F28918D1F8E81088477C4352
S3156000362018EB04000AFB09F910EB0900103021E0E1
S315600036305FF0000901E019F10109B9F1030F15D234
S315600036404FF49F6607FB04F018EB000006FB09F1D8
S315600036504018103002F0B1FA0028ECD17C4318EB28
S31560003660040006FB09F68019103003E04FF48D70F4
S3156000367028800020BDE8F0872DE9F0470600002489
S3156000368000E0641C002C40F08E8040F6F867DFF89E
S31560003690B88207FB04F058F80000726B9042F0D1D4
S315600036A00D0007FB04F018EB00004068316A8842A1
S315600036B003D040F22B10288075E007FB04F018EB6E
S315600036C000008068F16C884203D040F22F10288099
S315600036D069E0316A002000F069F8002803D140F201
S315600036E0191028805FE05FF0000901E019F1010917
S315600036F0B9F1030F36D24FF49F6A07FB04F018EB5B
S3156000370000000AFB09F14018103002F056FA04284E
S31560003710ECD107FB04F018EB00000AFB09F1401836
S3156000372010F11001300002F085FC0028DED007FBA6
S3156000373004F018EB00000AFB09F14018103007FB93
S3156000374004F118EB01010AFB09F28918D1F8E810B7
S3156000375088477C4318EB04000AFB09F910EB090063
S31560003760103021E05FF0000901E019F10109B9F1BB
S31560003770030F15D24FF49F6607FB04F018EB0000A9
S3156000378006FB09F14018103002F017FA0028ECD158
S315600037907C4318EB040006FB09F68019103003E041
S315600037A04FF48D7028800020BDE8F087F8B50500DD
S315600037B00E006648046807E02800C0B2002802D1FF
S315600037C0C9B202291BD06468002C1AD0A7683800D9
S315600037D002F04DFA0028F6D0386A8642F3D15C488A
S315600037E00068D7F8AC108842EDD0380002F066FB6E
S315600037F001000800C0B20128DED1380002E03800BE
S3156000380000E00020F2BD70B505005048046800E095
S315600038106468002C1AD0A668300002F020FA0128ED
S31560003820F6D1300002F0C9F90328F1D1306A854239
S31560003830EED1300002F042FB0128E9D1444800682D
S31560003840D6F8AC108842E3D1300000E0002070BDAD
S315600038502DE9F04105000E003C48046821E0A768A8
S315600038606468B046380002F0F4F94FFA88F880458B
S3156000387017D1386A854214D10222396A786B0FF003
S3156000388064FDD7F8D800002807D140F2A312314969
S31560003890314829F071F8AFF300803800D7F8D810B6
S315600038A08847002CDBD1BDE8F08138B5274C20680D
S315600038B011E08568D5F8D800002807D140F2AD122E
S315600038C02449264829F058F8AFF300802800D5F837
S315600038D0D810884720680028EBD131BD70B5060046
S315600038E01A48046800E06468002C0FD0A568002DB3
S315600038F007D14FF4DC721749194829F03DF8AFF348
S315600039000080E86C8642EED1012000E0002070BDA8
S3156000391038B54FF4A1610022094C200027F0EAEB8C
S3156000392040F6F86421000022064D280027F0E2EBFD
S315600039300022054D2100280027F0DCEB31BD000098
S31560003940481E0310502303104832031028640310E6
S31560003950D4DB021020DB0210E8DA021098DB0210DA
S31560003960C4DB02102DE9F843002248432249096866
S3156000397042F21072B1FBF2F1204AB2FBF1F24FF45F
S315600039807A7400250021A4FB006704FB017705FB20
S315600039900077DFE91B894F4510D801D346450DD224
S315600039A042F210740025A4FB060104FB071105FB17
S315600039B00611002327F0D8EB800817E09100B0FBD2
S315600039C0F1F042F2107202FB00F20023A4FB020146
S315600039D004FB031105FB021100220123994203D85F
S315600039E001D3904200D201E05FF0FF30002801D0A1
S315600039F000F00AF8BDE8F1839438100000CA9A3BDB
S31560003A00000000000100000080B500F001F801BD73
S31560003A1001380028FCD1704770470000DFF800F0DD
S31560003A20AF29100080B50120FFF7F8FF0F48104955
S31560003A30086001BD81B00F4AC0F3044310F48001F1
S31560003A40CB1812EB8301012210F01F0012FA00F06E
S31560003A5000900A68009882430A60032002E00A68C0
S31560003A600092401E0028FAD101B0704701A521439B
S31560003A70100228814002288018B587B00020069081
S31560003A8002200590364804900020039002200290A0
S31560003A900420019002200090012307220021314872
S31560003AA0008800F08AFA0400002C18D02E4B2F4AAA
S31560003AB00E21200000F009FC2D4B0FF2ED021021C3
S31560003AC0200000F002FC10220FF2A511200000F089
S31560003AD02EFC80220FF2A511200000F028FC2000A9
S31560003AE008B010BD80B5FFF7C7FF002801D00020E1
S31560003AF001E05FF0FF3040B202BDFEB504000D008C
S31560003B0016001848008804F025F8002801D1FFF750
S31560003B10B3FF002801D1002021E0210000F03EFA29
S31560003B2007000821012025F0C9F80400002C01D106
S31560003B30002014E0268065609720019000940D4B6C
S31560003B40A4220321380000F030FB0220019000948B
S31560003B50094BC7220421380000F027FB3800FEBD60
S31560003B6048DC02109C1D031054DC0210493300101F
S31560003B7068DC0210D13400103134001038B504000E
S31560003B806068C06803881500ADB2AB4202D05FF0D2
S31560003B90FF3007E092B24568280027F024EA20004B
S31560003BA00FF0DDFB32BD00002DE9F84305000E0085
S31560003BB01700D6F80C80307850F0800038701420EA
S31560003BC0B8700020F8703189280000F0BDFB040051
S31560003BD0002C43D03089032840D1E06800283BD0D0
S31560003BE0D4F80C90286801F086FE012802D10E20D8
S31560003BF0B87033E0B6F90A00B9F80010884202DA04
S31560003C001320B8702AE0B9F80000B6F90A108842A5
S31560003C1002DA1520B87021E0207A400609D5A86836
S31560003C20006C002805D0327821002800AB681B6C38
S31560003C309847B9F80020D9F804904146484627F0DD
S31560003C40D2E928000FF08BFB002802D00920B8705B
S31560003C5004E00020B87001E01520B870002C04D094
S31560003C603089042801D10E20B8700120BDE8F283A6
S31560003C7080B50FF086FB40B202BD000080B50FF044
S31560003C806EFB40B202BD000010B50400254920005D
S31560003C9001F07AFE200001F0F1FD10BDF8B50500D7
S31560003CA00E00002700F01FF80400002C04D1012745
S31560003CB040F21310308013E02900200002F068F90A
S31560003CC0200002F07FF90021200001F0C6FF1648AF
S31560003CD0C4F8D8001548C4F8DC00200001F0EBFDFC
S31560003CE03800C0B2F2BD70B5002400E0641C062C3A
S31560003CF00CD24FF49F650E4E05FB04F0301801F0B0
S31560003D005CFF0028F2D16C43301900E0002070BDE2
S31560003D1010B541F6D0510022054C200027F0EAE9A3
S31560003D2010BD00000F9B001035480010412C00109C
S31560003D303846031010B5040003F0CEFE40B20028EA
S31560003D4008D03222DFF81C1ADFF81C0A28F014FEAD
S31560003D50AFF3008002F087FE40B2002808D034221C
S31560003D60DFF8001ADFF8000A28F006FEAFF30080DD
S31560003D7004F041FA40B2002808D03622DFF8E41990
S31560003D80DFF8E40928F0F8FDAFF3008002F0C6FB27
S31560003D9040B2002808D03822DFF8C819DFF8C80911
S31560003DA028F0EAFDAFF30080200080B200F0BAFE92
S31560003DB040B2002808D03A22DFF8A819DFF8A8092F
S31560003DC028F0DAFDAFF30080FFF78CFE40B20028E2
S31560003DD008D03C22DFF88C19DFF88C0928F0CCFD7E
S31560003DE0AFF3008002F05FF940B2002808D03F22AE
S31560003DF0DFF87019DFF8700928F0BEFDAFF30080B8
S31560003E0003F083FD40B2002808D04222DFF854193F
S31560003E10DFF8540928F0B0FDAFF3008003F0EBFF44
S31560003E2040B2002808D04422DFF83819DFF8380994
S31560003E3028F0A2FDAFF300800FF02FFA04002000F7
S31560003E4040B2002808D05122DFF81819DFF81809A7
S31560003E5028F092FDAFF30080200040B210BD2DE93E
S31560003E60FC410E0017009846F18889B203F07BFE8C
S31560003E700400002C27D0A068056B002D20D0002000
S31560003E8001E00C35401CA168098D884218D2317852
S31560003E902A789142F5D16868002808D17D22DFF83A
S31560003EA0C418DFF8C80828F067FDAFF300800898EB
S31560003EB0009043463A00310020006C68A0470FE04E
S31560003EC00820B87001E00520B8700020F87017F17E
S31560003ED0080027F01FFD307850F080003870012010
S31560003EE0BDE8F6812DE9F04706000F0000200025A9
S31560003EF05FF00109002016F12C0805E0D8F80000F3
S31560003F0010F10C0819F10109D8F800000028F5D164
S31560003F105FF0000A27E0002D00D12500C4F800906C
S31560003F20A660308B002813D01021308B24F0C6FE9B
S31560003F3060606068002808D1C022DFF82818DFF8C2
S31560003F40300828F019FDAFF30080606800281FD0A4
S31560003F50C8F8004014F10C08F08A401CF08219F190
S31560003F6001091AF1010ABA4512DA1021012024F07A
S31560003F70A5FE0400002C08D1B022DFF8E817DFF8B0
S31560003F80F40728F0F9FCAFF30080002CC3D1FFE7FB
S31560003F90BA4500D000252800BDE8F08738B5040092
S31560003FA00D002900200003F0DEFD002804D1012168
S31560003FB02000FFF797FF056032BD2DE9FE4F070031
S31560003FC0884615001E00380003F0C4FD002808D09E
S31560003FD0F222DFF89017DFF8A00728F0CDFCAFF3E8
S31560003FE00080119CDDF838B0DDF834A0DDF8309043
S31560003FF0029600954821012024F060FE05004821C4
S31560004000012024F05BFE06002F61AC820020E8826E
S315600040100020E862A5F81890A5F81AA0A5F828B0BF
S3156000402000202863109868635FF0FF3434610120D4
S31560004030F082F56218F10708A6F818800098708378
S3156000404002983085109827F028E9801D010001202C
S3156000405024F034FE7063109827F01EE9109BDFF899
S315600040601C27801D0100706B28F098FC00202860DA
S3156000407000206860AE600020E860346000207060F8
S315600040800020B0600020F0601021308B24F016FE16
S3156000409068600C21308D24F011FE30630C21288D70
S315600040A024F00CFE28630F98012803DB0F99280083
S315600040B0FFF718FF280003F063FD10F1010F01D12F
S315600040C0002070E0129C300000F09EFC280000F09A
S315600040D09BFC2000002863D10FF29D3403200190E1
S315600040E015F1140000902300C7220121280000F07A
S315600040F05CF80320019015F1160000902300C7229A
S315600041000221280000F051F80320019015F11600F5
S3156000411000902300C7220321280000F046F8DFF84C
S31560004120C4780820019000972300C7220421280044
S3156000413000F03BF80020019000972300C72205217C
S31560004140280000F032F80220019016F11A00009063
S315600041502300C7220621280000F027F802200190DC
S3156000416015F11A0000902300C7220721280000F0ED
S315600041701CF80298012815DB0298022807DBDFF895
S3156000418068380FF2F5320121300000F09EF8DFF852
S315600041905C380FF2FD120E21300000F096F801E057
S315600041A02800A0472800BDE8FE8F2DE9F0470600ED
S315600041B00F0091469A46089C002C09D140F2651280
S315600041C0DFF8A015DFF8280828F0D6FBAFF30080EB
S315600041D07568D6F80880002D09D14FF4B572DFF8FE
S315600041E08415DFF8100828F0C7FBAFF300800021C4
S315600041F001E01035491CB068008B81425ADAE868E4
S315600042000028F6D1099E2F8085F80290C5F804A093
S315600042102E72EC60B8F81A00390089B2884209D269
S315600042204FF4BA72DFF83C15DFF8CC0728F0A4FB30
S31560004230AFF30080380080B200F0FDFBB10709D50E
S315600042403A0092B20823012192FBF3F403FB142295
S31560004250914000E00021D8F81C20125C1143D8F888
S315600042601C20115416F0090F09D03A0092B20823A7
S31560004270012192FBF3F403FB1422914000E000213C
S31560004280D8F82420125C1143D8F824201154BFB208
S315600042900821D8F82020125CF6B2B60816F001069E
S315600042A097FBF1F301FB1377BE401643D8F8201055
S315600042B00E5408E04FF4C472DFF8A81495A028F0F5
S315600042C05BFBAFF30080BDE8F0872DE9F0410500A8
S315600042D00E00170098462C6B002C09D140F29512FF
S315600042E0DFF88014DFF8140728F046FBAFF3008090
S315600042F0002101E00C34491C288D81420CDA2078BB
S315600043003200D2B2904202D060680028F2D12670A4
S315600043106760C4F8088008E040F2A312DFF844142E
S315600043207CA028F029FBAFF30080BDE8F081D306BE
S3156000433000D58163930600D5C163530600D5016439
S31560004340120600D54164704730B4020050680023FD
S3156000435001E010305B1C9468248BA34205DA0C00E4
S315600043600588A4B2AC42F4D100E0002030BC7047AE
S3156000437038B504000D0015F1080027F0CBFA207857
S3156000438050F0800028701420A8700020E87031BDBD
S315600043902DE9F04105000E00170031892800FFF76E
S315600043A0D3FF040039003000FFF7E2FFB6F808805B
S315600043B0002C44D0E068002841D0404680B200F02E
S315600043C03AFBA968C969085C1FFA88F808210122C6
S315600043D098FBF1F301FB138812FA08F8C0B210EAF1
S315600043E0080F2CD0207AC00609D5A868806B0028F3
S315600043F005D0327821002800AB689B6B9847002C6B
S3156000440009D14FF4FB72DFF85C13DFF8E80528F09A
S31560004410B3FAAFF3008017F10801E068626890476D
S315600044200020B870207A800609D5A868C06B00287D
S3156000443005D0327821002800AB68DB6B98470120F5
S31560004440BDE8F08180B5007806F0CFFC01BD80B58F
S31560004450007806F0CAFC01BD80B5008806F0D3FC82
S3156000446001BD80B5006806F0E1FC01BD80B500784D
S3156000447006F0BBFC01BD000080B5008806F0C3FCF9
S3156000448001BD80B5006806F0D1FC01BD70B50400C1
S315600044900D002900207806F0A8FC22786168D5F81E
S315600044A00064300026F09EEDD5F8000421784018AF
S315600044B0C5F80004D5F80404217850FA81F0C5F8EF
S315600044C0040470BD70B504000D002900208806F054
S315600044D09AFC208800281BD022886168D5F8006481
S315600044E0300026F080EDD5F8000421884018C5F824
S315600044F00004D5F80404218810FA81F0C5F8040494
S3156000450095F80404C00703D52900002006F06DFC69
S3156000451070BD00003000000070B504000D002288F8
S315600045206168D5F80064300026F05CEDD5F80004CB
S3156000453021884018C5F80004D5F80404218810FACB
S3156000454081F0C5F8040470BD80B500F095F801BD32
S3156000455038B50C000622D4F800540100280026F075
S3156000456042EDD4F80004801DC4F80004D4F80404B5
S31560004570801DC4F8040431BD2DE9F04704000D0028
S31560004580170017F1080027F0C5F96168A068008B6D
S31560004590002808D1287850F0800038700820B8705C
S315600045A00020F87065E00026002209E0087AC0065F
S315600045B004D5A068806B002800D001261031521CFB
S315600045C0A068008B8242F1D33000C0B2002805D0CB
S315600045D02A782000A3689B6B98470026D4F804804D
S315600045E039002800FFF7C4FE0020B8705FF00009AC
S315600045F021E0B8F800A0504680B200F01CFA51469F
S3156000460089B20822A3685B6A185C012391FBF2FCFD
S3156000461002FB1C1113FA01F1084208D0A5F808A0A4
S3156000462017F10801D8F80C00D8F80420904718F163
S31560004630100819F10109A068008B8145D9D361681A
S31560004640002209E0087A800604D5A068C06B0028BD
S3156000465000D001261031521CA068008B8242F1D333
S31560004660F6B2002E05D02A782000A368DB6B984747
S3156000467000200120BDE8F087F8B505000E002C7813
S31560004680D6F804743100287880B206F0BCFB6888DE
S31560004690B0F5807F0ADA3100202006F0A6FB3100F3
S315600046A06888C0B206F0A1FB641E0CE031002120D0
S315600046B006F09BFB3100002006F097FB310068880E
S315600046C006F0A1FBA41E002C39D0A888B0F5807F27
S315600046D00ADA3100242006F088FB3100A888C0B2CF
S315600046E006F083FB641E0CE03100252006F07DFB9E
S315600046F03100002006F079FB3100A88806F083FBC4
S31560004700A41E002C1BD0E888B0F5807F0ADA310041
S31560004710302006F06AFB3100E888C0B206F065FB1F
S31560004720641E0CE03100312006F05FFB3100002092
S3156000473006F05BFB3100E88806F065FBA41E28786E
S315600047404000801CD6F80414CF1BB84208D040F253
S315600047508F320449DFF8A80228F00EF9AFF3008023
S31560004760F1BD0000A0DC021084DC021018DD02102E
S3156000477050DD021038DD021074DD021094DD021087
S315600047802DE9FE4304000D0016001F005FF00008CF
S3156000479028680090002000200020ADF80A00002064
S315600047A0ADF808000020ADF8060000208DF8050081
S315600047B000208DF804000020009800782070009892
S315600047C0401C0090002060800020A0800020E080D7
S315600047D01CE018F1010800980078202810D02128E4
S315600047E021D0242829D025282ED0282847D029282A
S315600047F049D0302832D0312837D0342849D0E6E045
S315600048000098407860800098801C009020788045F1
S3156000481080F0E0800098007810F007000728D8D173
S315600048205FF0FF30DBE00098801C0090684606F081
S3156000483096FA608018F10108E8E700984078A08051
S315600048400098801C0090E1E70098801C0090684604
S3156000485006F085FAA08018F10108D7E7009840783D
S31560004860E0800098801C0090D0E70098801C009043
S31560004870684606F074FAE08018F10108C6E7009809
S31560004880801C0090C2E70098801C009018F1010817
S31560004890BCE700984078C0B2042840F095800222B8
S315600048A00098811C0DF10A09484626F09CEB02220D
S315600048B00098011D0DF10809484626F094EB022286
S315600048C00098811D0DF10609484626F08CEB012201
S315600048D0009810F108010DF10509484626F082EBB3
S315600048E00122009810F109010DF10409484626F0ED
S315600048F07AEB9DF8050010F0800000224149BDF872
S315600049000A000B88984203D0BDF80A00002827D118
S31560004910BDF806008B88984203D0BDF806000028D3
S315600049201ED1BDF808004B88984203D0BDF8080038
S3156000493000281DD1D2B2002A2AD19DF80500002890
S3156000494034D09DF805008A79904219D19DF804000B
S31560004950C97988422AD09DF80400002826D00FE045
S31560004960252030704FF48A7038805FF0FF3036E073
S315600049702520307040F2151038805FF0FF302EE051
S31560004980252030704FF48B7038805FF0FF3026E062
S315600049909DF805008A7990420ED19DF804000028A2
S315600049A00AD0C8799DF80410884205D300980A3069
S315600049B0009018F1040829E7252030704FF48B70B9
S315600049C038805FF0FF300AE05FF0FF3007E05FF0AD
S315600049D0FF3004E0009828605FEA4800401CBDE8AC
S315600049E0FE8300009E1D03109CDD0210ACDD0210EC
S315600049F0C0DD0210CCDD0210DCDD021014DE021018
S31560004A0024DE021030D3021038B50400608B00F04B
S31560004A1012F805006D1C0121280024F04FF9E061B1
S31560004A200121280024F04AF920620121280024F09F
S31560004A3045F9606231BD80B2082190FBF1F07047A4
S31560004A40DFF81C1A0888401C08800A88DFF8140AF8
S31560004A50006882180A80DFF8100A0068098808432F
S31560004A607047FEB50400A568DFF8006A0320019070
S31560004A7014F1140000903300C72201212000FFF7D3
S31560004A8094FB0320019014F1160000903300C722B6
S31560004A9002212000FFF789FB0220019014F1160025
S31560004AA000903300C72203212000FFF77EFBDFF86A
S31560004AB0C0790020019000973300C72204212000AE
S31560004AC0FFF773FB0020019000973300C722052192
S31560004AD02000FFF76AFB0320019015F11A00009091
S31560004AE03300C72206212000FFF75FFB03200190F9
S31560004AF014F11A0000903300C72207212000FFF747
S31560004B0054FBDFF87039DFF8702901212800FFF7C0
S31560004B10DCFBDFF86839DFF868290E212800FFF72B
S31560004B20D4FBF7BD30B587B0050000F04FFFDFF866
S31560004B305409069001200590DFF84C090490012085
S31560004B400390062002900E20019000200090022320
S31560004B5007220021DFF834090088FFF72EFA0400E7
S31560004B60002C02D15FF0FF3043E0DFF81039DFF848
S31560004B7010290E212000FFF7A8FBDFF8F838DFF8D0
S31560004B80F82801212000FFF7A0FBDFF804390FF2B7
S31560004B90012254212000FFF798FBDFF8F8380FF266
S31560004BA0D9125B212000FFF790FBDFF8EC380FF29B
S31560004BB0DD224E212000FFF788FBDFF8E0380FF298
S31560004BC0B5325A212000FFF780FBADB22D04DFF825
S31560004BD098080560DFF8C818DFF8C808008800F094
S31560004BE0A1FEDFF8C418DFF88C0C008800F09AFE8E
S31560004BF0002007B030BD70B51600DFF87C5C2A0077
S31560004C0003F006FD10F1010F02D15FF0FF304DE0B9
S31560004C10A888A12804D0A88848F20201884244D115
S31560004C20288AB12841D1A86800F03FFB0400002C17
S31560004C3002D15FF0FF3039E0D4F8C4007168884271
S31560004C4033D1200001F0E7F8E868002816D1D4F8DF
S31560004C50A00010F1010F28D1200001F0D4F8E86817
S31560004C60C4F8A000D4F8E40000281ED06A8A6969F6
S31560004C702000D4F8E430984740B217E0D4F8A0009A
S31560004C80E968884211D2200001F0BDF8E868C4F8EE
S31560004C90A000D4F8E400002807D06A8A6969200079
S31560004CA0D4F8E430984740B200E0002070BD80B58B
S31560004CB019004FF49973012200F0FEF902BD80B528
S31560004CC019004FF49973012200F0F6F902BD80B520
S31560004CD019004FF48073012200F0EEF902BD7CB535
S31560004CE016001C000020ADF80000DFF8345C2800D8
S31560004CF000F0D2FF10F1010F07D140F20313012239
S31560004D002100280000F0D8F934E06A463100280016
S31560004D1000F0CCFB002808D0BDF800300200D2B20B
S31560004D202100280000F0C8F924E0A86C00F017FE06
S31560004D300200002A04D0694628005268904705E0C0
S31560004D405FF0FF3040F22F11ADF80010002808D058
S31560004D50BDF800300200D2B22100280000F0ACF9A4
S31560004D6008E0002300222100DFF8180C0068806844
S31560004D7000F0A2F976BD000038B50124DFF8A05B2B
S31560004D8085F8F044049C009400F00DF832BD0000F4
S31560004D9038B50024DFF8885B85F8F044049C0094FD
S31560004DA000F001F832BD2DE9F84304000D0016004D
S31560004DB09846DDF8209000200020DFF8647B3900FB
S31560004DC015F10C0000F078FEC7F8D090102241462D
S31560004DD017F1C009484626F006E9380001F066F882
S31560004DE08146380001F06AF84946C9B2032907D1FD
S31560004DF040F2231301223100380000F05DF943E0F0
S31560004E000100C9B2032907D14FF492730122310020
S31560004E10380000F051F937E00100C9B2012911D11B
S31560004E20D8F80410DFF8C03B1A685B6819401A406E
S31560004E30914207D040F6130301223100380000F09A
S31560004E403BF921E050EA09095FFA89F9B9F1000FE7
S31560004E5002D15FF0010801E05FF00008380000F061
S31560004E605BFA002801D0012000E000202100DFF875
S31560004E707C2B5FFA88F812EBC802C0B252F8204069
S31560004E8033002A003800A047BDE8F2832DE9FE4FC3
S31560004E900D0016001F0040F2071BDFF8DC09002139
S31560004EA0018300218185E868801CE86015F10C00AB
S31560004EB005F055FFADF8080015F10C0005F04FFF41
S31560004EC0804615F10C0005F070FF8146DFF8B40AE4
S31560004ED0046800E06468002C37D0D4F808A0504617
S31560004EE000F06BFE032804D0504600F066FE0428EE
S31560004EF0F0D1BAF88000BDF808108842EAD1BAF855
S31560004F008200414689B28842E4D1DAF88400484595
S31560004F10E0D1DAF8D800002809D14FF46372DFF8DF
S31560004F20D01ADFF8D00A27F027FDAFF30080786843
S31560004F30DAF8C410884206D15046DAF8D8108847A5
S31560004F405FF0000B01E04FF6FF7B584640F2071119
S31560004F5080B288421FFA8BFBCDF804B000962B0016
S31560004F604A46414689B2BDF8080000F045F9BDE8F9
S31560004F70FE8F000000207047F8B506000EF0E4F9D9
S31560004F80300005F023FEDFF8FC09046867E0D5E928
S31560004F9018010027801BB941C5E918015EE0D5E913
S31560004FA01A010027801BB941C5E91A01D5E91C0120
S31560004FB00027801BB941C5E91C01280000F0FDFDF2
S31560004FC003284BD1280000F098FE002846D0DFF871
S31560004FD0280A0068D5F8AC1088423FD0280000F057
S31560004FE05BFE00280ED0D5E91E010027B94209D81C
S31560004FF001D3B04206D2D5E91E010027801BB94114
S31560005000C5E91E010027D5E918018F42BFD301D833
S315600050108642BCD3D5F8E000002809D14FF48262FD
S31560005020DFF8CC19DFF8D40927F0A6FCAFF30080CF
S315600050302800D5F8E01088475FF0FF3140B288421B
S31560005040280000F05CFE0021C5E91801280000F088
S3156000505023FE002802D0280000F0AFFF6468002C11
S3156000506028D0A568280000F0A8FD0328F6D1A86D11
S31560005070002804D1280000F002FE01289DD10027F7
S31560005080D5E91A018F428AD301D8864287D3D5F8EB
S31560005090DC00002809D140F2CD32DFF85419DFF880
S315600050A0600927F069FCAFF300802800D5F8DC10B2
S315600050B0884782E70020F2BD2DE9F04104000D002B
S315600050C016009846DFF8B07702203880B220388222
S315600050D0380000F07DF8542194F8F004002800D0E0
S315600050E05B2151F080012970AE703000C0B200289B
S315600050F016D10020E870388B002806D0032038804F
S31560005100B88D002801D00420388015F10801206987
S3156000511005F08CFE15F10801E06805F087FE29E0D0
S315600051200021200000F068FD3000C0B2132801D0D5
S31560005130152802D10020E8701CE0404680B240F29B
S315600051402711401A02D0401E08D00FE00220E870F6
S31560005150A5F80480B4F8A400E8800BE00220E870AB
S31560005160A5F80480B4F8A600E88003E00120E870A2
S31560005170A5F8048015F10801B4F8800005F043FE37
S3156000518015F10801B4F8820005F03DFE15F108013D
S31560005190D4F8840005F04AFEF6B2002E0BD115F164
S315600051A00801D4F8880005F041FE15F10801D4F82D
S315600051B0900005F03BFE15F10801002005F015FE94
S315600051C015F10801002005F010FE0120BDE8F08110
S315600051D010B50400208AB22809D040F2CB42DFF82D
S315600051E01018DFF8200827F0C7FBAFF30080002017
S315600051F0A0800020E08010BD2DE9F84305000E0078
S3156000520017009846DDF82090099CDFF86C060221AD
S315600052100180B2210182FFF7DBFF19F10801280046
S3156000522080B205F0F0FD19F10801300080B205F09A
S31560005230EAFD19F10801380005F0F8FD98F800005C
S3156000524050F0800089F80000200080B200280BD161
S3156000525019F10801002005F0C8FD002089F8020058
S31560005260002089F8030018E019F10801D8F80C004D
S31560005270007805F0BAFD20004FF6FF7180B28842D3
S3156000528003D10F2089F8020007E0012089F80200A7
S31560005290A9F80440012089F8030019F108010020EB
S315600052A005F0A3FD0120BDE8F28338B50500DFF8FF
S315600052B05807046800E06468002C0BD0A06800F012
S315600052C07CFC0328F7D1A06800F06AFD8542F2D124
S315600052D0A06800E0002032BD38B50500DFF8280779
S315600052E0046800E06468002C14D0A06800F0B1FC8B
S315600052F00228F7D1A06800F060FC032804D0A068FB
S3156000530000F05BFC0428EDD1A068006A8542E9D113
S31560005310A06800E0002032BD38B50500DFF8E80679
S31560005320046800E06468002C0CD0A06800F045FCBE
S315600053300328F7D1A168280000F08CFE0028F1D080
S31560005340A06800E0002032BDF8B50D00160000210F
S315600053503180C0B2042805D040F2153030805FF04D
S31560005360FF307BE0280026F06FFA0400280026F064
S3156000537059FADFF89876398880B2884204D02800D6
S3156000538026F050FA00280BD1280026F053FAB98887
S3156000539080B288420AD0280026F04CFA002805D050
S315600053A04FF48A7030805FF0FF3057E0280026F0B7
S315600053B03DFA798880B288420AD0280026F036FA0B
S315600053C0002805D040F2151030805FF0FF3045E0D0
S315600053D0E4B2002C1FD1280026F030FA002801D153
S315600053E000203BE0280026F029FAB979C0B288424D
S315600053F00BD1280026F036FAF979C0B2884225D05A
S31560005400280026F02FFA002820D04FF48B703080C9
S315600054105FF0FF3022E0280026F010FAB979C0B2BA
S3156000542088420DD1280026F01DFA002808D02800F1
S3156000543026F018FAF979C0B2814201D300200DE056
S315600054404FF48B7030805FF0FF3007E030880028C3
S3156000545001D1002001E05FF0FF3040B2F2BD0000F4
S31560005460E0DA021024640310206403103134001063
S31560005470A21D03106CDE0210313500107CDE0210B6
S31560005480493300101B3A001090DE0210A01D031075
S31560005490A4DE0210B0DE0210C4DE0210D4DE0210FA
S315600054A0552C0010A41D0310DF5D00102DE9F24F8E
S315600054B08EB0060017000E98C0680090684605F02A
S315600054C03BFC804644460020002000254FF4807156
S315600054D0300000F083FCDFF83805016896F8F004C8
S315600054E0002802D0DFF82C05016811EB44000E9A03
S315600054F0B2F90A20904203D2002038801520DEE0FF
